:100000000C942A000C943F000C946C000C943F005C
:100010000C943F000C943F000C943F000C943F0064
:100020000C943F000C943F000C943F000C943F0054
:100030000C943F000C943F000C943F000C943F0044
:100040000C943F000C943F000C943F000C943F0034
:100050000C943F0011241FBECFE5D8E0DEBFCDBF1A
:1000600010E0A0E6B0E0EEE3F6E002C005900D92ED
:10007000A236B107D9F70E9489000C941D030C9495
:1000800000003E9A86B1876886B9089597B1907F3F
:100090008F70892B87B9369A3699FECF84B195B186
:1000A0000895BB9A83B7886483BF83B7806283BF98
:1000B00083B7826083BF1CBE0895BD9AC59808951A
:1000C0008B98939A85B7886085BF85B78B7F85BFEE
:1000D0008BB780688BBF08951F920F920FB60F9257
:1000E00011248F939F9383ED90E30197F1F700C064
:1000F0000000839907C09091600081E0911180E039
:10010000809360009F918F910F900FBE0F901F9072
:1001100018950E9441000E9451000E945D000E94BB
:10012000600081B3836081BB909A91987894CFEFFF
:1001300080E00E944600209160002223F1F1BC0182
:1001400080E090E00E94F90120E030E04AEF5EE3B9
:100150000E94B0026B017C0120E030E048EC51E4E9
:100160000E94530188231CF41CBEC59828C020E0BF
:1001700030E046E952E4C701B6010E94AB02882391
:100180001CF0CCBFC59A1BC020E030E048EC51E425
:10019000C701B6010E94E60020E030E048E452E4E6
:1001A0000E94580120E030E04FE753E40E94B00283
:1001B0000E94CA016CBFC59802C01CBEC59887EAE0
:1001C00091E60197F1F700C00000B2CF5058BB276D
:1001D000AA270E94FE000C9471020E94630238F06C
:1001E0000E946A0220F039F49F3F19F426F40C941F
:1001F00060020EF4E095E7FB0C945A02E92F0E948E
:10020000820258F3BA17620773078407950720F034
:1002100079F4A6F50C94A4020EF4E0950B2EBA2FF7
:10022000A02D0B01B90190010C01CA01A0011124FC
:10023000FF27591B99F0593F50F4503E68F11A16A8
:10024000F040A22F232F342F4427585FF3CF469539
:1002500037952795A795F0405395C9F77EF41F165B
:10026000BA0B620B730B840BBAF09150A1F0FF0F25
:10027000BB1F661F771F881FC2F70EC0BA0F621F11
:10028000731F841F48F4879577956795B795F79501
:100290009E3F08F0B0CF9395880F08F09927EE0F96
:1002A0009795879508950E94360208F481E0089595
:1002B0000E946C010C9471020E946A0258F00E9424
:1002C000630240F029F45F3F29F00C945A02511167
:1002D0000C94A5020C9460020E94820268F3992398
:1002E000B1F3552391F3951B550BBB27AA27621732
:1002F0007307840738F09F5F5F4F220F331F441F3F
:10030000AA1FA9F335D00E2E3AF0E0E832D0915072
:100310005040E695001CCAF72BD0FE2F29D0660F5F
:10032000771F881FBB1F261737074807AB07B0E8A2
:1003300009F0BB0B802DBF01FF2793585F4F3AF0A8
:100340009E3F510578F00C945A020C94A5025F3F31
:10035000E4F3983ED4F3869577956795B795F7952E
:100360009F5FC9F7880F911D9695879597F9089516
:10037000E1E0660F771F881FBB1F621773078407B2
:10038000BA0720F0621B730B840BBA0BEE1F88F7C1
:10039000E09508950E948A0288F09F5798F0B92F3F
:1003A0009927B751B0F0E1F0660F771F881F991FAA
:1003B0001AF0BA95C9F714C0B13091F00E94A402A6
:1003C000B1E008950C94A402672F782F8827B85FB6
:1003D00039F0B93FCCF3869577956795B395D9F702
:1003E0003EF490958095709561957F4F8F4F9F4F0C
:1003F0000895E89409C097FB3EF490958095709518
:1004000061957F4F8F4F9F4F9923A9F0F92F96E960
:10041000BB279395F695879577956795B795F111D5
:10042000F8CFFAF4BB0F11F460FF1BC06F5F7F4F72
:100430008F4F9F4F16C0882311F096E911C0772384
:1004400021F09EE8872F762F05C0662371F096E88D
:10045000862F70E060E02AF09A95660F771F881F5C
:10046000DAF7880F9695879597F90895990F000800
:10047000550FAA0BE0E8FEEF16161706E807F90776
:10048000C0F012161306E407F50798F0621B730B11
:10049000840B950B39F40A2661F0232B242B252B92
:1004A00021F408950A2609F4A140A6958FEF811D35
:1004B000811D089597F99F6780E870E060E00895D6
:1004C0009FEF80EC089500240A941616170618066C
:1004D0000906089500240A94121613061406050648
:1004E0000895092E0394000C11F4882352F0BB0FD9
:1004F00040F4BF2B11F460FF04C06F5F7F4F8F4F3C
:100500009F4F089557FD9058440F551F59F05F3F76
:1005100071F04795880F97FB991F61F09F3F79F025
:1005200087950895121613061406551FF2CF4695A7
:10053000F1DF08C0161617061806991FF1CF869529
:100540007105610508940895E894BB27662777270D
:10055000CB0197F908950E94360208F48FEF0895B1
:100560000E94C3020C9471020E94630238F00E9440
:100570006A0220F0952311F00C945A020C94600248
:1005800011240C94A5020E94820270F3959FC1F37E
:10059000950F50E0551F629FF001729FBB27F00D31
:1005A000B11D639FAA27F00DB11DAA1F649F662786
:1005B000B00DA11D661F829F2227B00DA11D621FD5
:1005C000739FB00DA11D621F839FA00D611D221F8F
:1005D000749F3327A00D611D231F849F600D211D73
:1005E000822F762F6A2F11249F5750409AF0F1F0F6
:1005F00088234AF0EE0FFF1FBB1F661F771F881F5F
:1006000091505040A9F79E3F510580F00C945A023A
:100610000C94A5025F3FE4F3983ED4F3869577955A
:100620006795B795F795E7959F5FC1F7FE2B880F04
:0E063000911D9695879597F90895F894FFCF40
:02063E000100B9
:00000001FF
